:03000000020C34BB
:0C0C3400787FE4F6D8FD75812F02093CA2
:1009E8004D6573736167652031004D657373616789
:1009F800652032004D6573736167652033004D656E
:100A080073736167652034004D6573736167652092
:100A180035004D6573736167652036004D657373E6
:100A28006167652037004D6573736167652038001D
:100A38004D6573736167652039001B5B324A5D0041
:100A4800FF09E8FF09F2FF09FCFF0A06FF0A10FF89
:0B0A58000A1AFF0A24FF0A2EFF0A38CA
:060BE0007BFF7A0A794256
:100BE6001208F66010F5993099FDC299740129F939
:060BF600E43AFA80EB2254
:0C0C4000758920758DFD759850D28E22AC
:080C4C008F993099FDC2992235
:10093C00E4F508F509F50AF50B780C7C00FD7BFF56
:10094C007A0A7948FE7F1B1208D0120BFC120C405D
:10095C00120A63C3EF9401EE6480948040F2D3EFEB
:09096C009409EE6480948050E7C8
:10097500EF75F003A42409F8860308E6FA08E68B68
:10098500298A2AF52BE4F527F528AB29AA2AA92BCC
:0C09950085288285278312090FFF601857
:0E09A100F52C7B007A00792C120AC0120BBCD8
:1009AF000528E52870DA052780D6E4F527F528AB6A
:1009BF0029AA2AA92B85288285278312090FFF6070
:0109CF008C9B
:0E09D000F52C7B007A00792C120C22120BBC45
:0A09DE000528E52870DA052780D609
:100C1000C2B5C2B6D2B78FA07F017E00120BC0C290
:020C2000B722F9
:100AC0008B2D8A2E892FAB2DAA2EA92F1208F66006
:100AD0002BD2B5C2B6D2B7F5A07F017E00120BC0F3
:100AE000C2B7AB2DAA2EA92F1208F6FF120C4C7418
:0D0AF00001252FF52FE4352EF52E80CA22AA
:040BBC007F1E7E001A
:100BC000E4FDFCC3ED9FEC9E5015E4FBFA0BBB006B
:0F0BD000010ABA04F8BBFBF50DBD00010C80E46F
:010BDF0022F3
:100BFC007F01120C107F38120C107F06120C107F24
:040C0C000C020C10BA
:100A6300900000120BBCD290D291D292D293C29436
:100A7300C297C296C29520930D7F01120C10120BE0
:100A8300E0120AFD802E20920D7F01120C10120B32
:100A9300E0120B8D801E20910D7F01120C10120BA2
:100AA300E0120B2D800E20900F7F01120C10120B01
:0C0AB300E0120B5D8E838F82AE83AF8259
:010ABF002214
:100C22008B2D8A2E892F7F18120C107F1E7E0002B8
:020C32000BC0F5
:100AFD00D294D297D296D295C290C291C292C293FD
:100B0D002095057E007F01222096057E007F042220
:100B1D002097057E007F07222094047E007F0F2200
:100B8D00D294D297D296D295C290C291C292C2936C
:100B9D002095057E007F02222096057E007F05228E
:0F0BAD002097057E007F0822209403E4FEFF229C
:100B2D00D294D297D296D295C290C291C292C293CC
:100B3D002095057E007F03222096057E007F0622EC
:100B4D002097057E007F09222094047E007F0E22CF
:100B5D00D294D297D296D295C290C291C292C2939C
:100B6D002095057E007F0A222096057E007F0B22B0
:100B7D002097057E007F0C222094047E007F0D229D
:10080000E709F608DFFA8046E709F208DFFA803EDA
:1008100088828C83E709F0A3DFFA8032E309F608C7
:10082000DFFA8078E309F208DFFA807088828C832F
:10083000E309F0A3DFFA806489828A83E0A3F608E3
:10084000DFFA805889828A83E0A3F208DFFA804CBD
:1008500080D280FA80C680D4806980F28033801094
:1008600080A680EA809A80A880DA80E280CA8033FD
:1008700089828A83ECFAE493A3C8C582C8CCC58375
:10088000CCF0A3C8C582C8CCC583CCDFE9DEE78045
:100890000D89828A83E493A3F608DFF9ECFAA9F0C4
:1008A000EDFB2289828A83ECFAE0A3C8C582C8CC1A
:1008B000C583CCF0A3C8C582C8CCC583CCDFEADE33
:1008C000E880DB89828A83E493A3F208DFF980CC95
:1008D00088F0EF60010E4E60C388F0ED2402B4048E
:1008E0000050B9F582EB2402B4040050AF23234535
:0608F00082239008507302
:1008F600BB010689828A83E0225002E722BBFE0200
:09090600E32289828A83E4932232
:10090F00BB010CE58229F582E5833AF583E022509D
:10091F0006E92582F8E622BBFE06E92582F8E222E7
:0D092F00E58229F582E5833AF583E4932201
:00000001FF
