:03000000020BBC34
:0C0BBC00787FE4F6D8FD75812F02093C1B
:1009E0004D6573736167652031004D657373616791
:1009F000652032004D6573736167652033004D6576
:100A000073736167652034004D657373616765209A
:100A100035004D6573736167652036004D657373EE
:100A20006167652037004D65737361676520380025
:100A30004D657373616765203900FF09E0FF09EABE
:100A4000FF09F4FF09FEFF0A08FF0A12FF0A1CFF54
:050A50000A26FF0A3038
:100B760011F66010F5993099FDC299740129F9E4CE
:050B86003AFA80EC22A8
:0C0BC800758920758DFD759850D28E2225
:080BD4008F993099FDC29922AE
:10093C00E4F508F509F50AF50B780C7C00FD7BFF56
:10094C007A0A793AFE7F1B11D0719C71C85155C33C
:10095C00EF9401EE6480948040F3D3EF9409EE643D
:05096C0080948050E8BA
:10097100EF75F003A42409F8860308E6FA08E68B6C
:10098100298A2AF52BE4F527F528AB29AA2AA92BD0
:0B099100852882852783310FFF601747
:0D099C00F52C7B007A00792C5190120B5243
:1009A9000528E52870DC052780D8E4F527F528AB6C
:1009B90029AA2AA92B852882852783310FFF6090D0
:0D09C900F52C7B007A00792C71AC120B52DA
:0A09D6000528E52870DC052780D80D
:100B8B00C2B5C2B6D2B78FA07F017E007156C2B775
:010B9B002237
:100A90008B2D8A2E892FAB2DAA2EA92F11F6602817
:100AA000D2B5C2B6D2B7F5A07F017E007156C2B7EB
:100AB000AB2DAA2EA92F11F6FF71D47401252FF5A5
:090AC0002FE4352EF52E80CE2224
:040B52007F1E7E0084
:100B5600E4FDFCC3ED9FEC9E5015E4FBFA0BBB00D5
:0F0B6600010ABA04F8BBFBF50DBD00010C80E4D9
:010B7500225D
:100B9C007F01718B7F38718B7F06718B7F0C618B22
:100A55009000007152D296D295D294C293C292C29E
:100A650091C2902094087F01718B51C98014209503
:100A7500087F01718B7125800920960A7F01718B92
:0A0A850051F78E838F82AE83AF829B
:010A8F002244
:100BAC008B2D8A2E892F7F18718B7F1E7E006156AC
:100AC900D293D292D291D290C296C295C2942090DA
:100AD900057E007F01222091057E007F042220925D
:0E0AE900057E007F07222093047E007F0F22EF
:100B2500D293D292D291D290C296C295C29420907D
:100B3500057E007F02222091057E007F05222092FE
:0D0B4500057E007F0822209303E4FEFF22BE
:100AF700D293D292D291D290C296C295C2942090AC
:100B0700057E007F03222091057E007F062220922A
:0E0B1700057E007F09222093047E007F0E22BF
:10080000E709F608DFFA8046E709F208DFFA803EDA
:1008100088828C83E709F0A3DFFA8032E309F608C7
:10082000DFFA8078E309F208DFFA807088828C832F
:10083000E309F0A3DFFA806489828A83E0A3F608E3
:10084000DFFA805889828A83E0A3F208DFFA804CBD
:1008500080D280FA80C680D4806980F28033801094
:1008600080A680EA809A80A880DA80E280CA8033FD
:1008700089828A83ECFAE493A3C8C582C8CCC58375
:10088000CCF0A3C8C582C8CCC583CCDFE9DEE78045
:100890000D89828A83E493A3F608DFF9ECFAA9F0C4
:1008A000EDFB2289828A83ECFAE0A3C8C582C8CC1A
:1008B000C583CCF0A3C8C582C8CCC583CCDFEADE33
:1008C000E880DB89828A83E493A3F208DFF980CC95
:1008D00088F0EF60010E4E60C388F0ED2402B4048E
:1008E0000050B9F582EB2402B4040050AF23234535
:0608F00082239008507302
:1008F600BB010689828A83E0225002E722BBFE0200
:09090600E32289828A83E4932232
:10090F00BB010CE58229F582E5833AF583E022509D
:10091F0006E92582F8E622BBFE06E92582F8E222E7
:0D092F00E58229F582E5833AF583E4932201
:00000001FF
